:1000000021C045C044C02AC142C08EC140C03FC0CB
:100010003EC03DC03CC03BC03AC039C038C0000003
:100020000000370000000000360001020408102024
:100030000000000038000202020202020102000079
:1000400004007B0411241FBECFE5D1E0DEBFCDBF8D
:1000500010E0A0E6B0E0EAE9F9E002C005900D92F8
:10006000A637B107D9F720E0A6E7B0E001C01D929E
:10007000A939B207E1F710E0C2E2D0E003C021974E
:10008000FE0183D4C132D107D1F798D184C4B8CF4F
:10009000813021F48AB58F778ABD0895823019F4B2
:1000A0008AB58F7DF9CF833021F480B78F7D80BFF3
:1000B0000895843019F48CB58F7D8CBD0895CF934D
:1000C000DF93282F30E0F901E45CFF4F8491F901C0
:1000D000E65DFF4FD491F901EA5CFF4FC491CC2358
:1000E00099F08111D5DFEC2FF0E0EE0FFF1FEC5DF2
:1000F000FF4FA591B491EC91ED2381E090E009F4DC
:1001000080E0DF91CF91089580E090E0FACF1F93D7
:10011000CF93DF93162F87FF09C08F7771F181305E
:1001200071F1823071F1833071F18FEF282F30E05F
:10013000F901E45CFF4F8491F901E65DFF4FD49132
:10014000F901EA5CFF4FC491CC2399F08111A0DF43
:10015000EC2FF0E0EE0FFF1FE05DFF4FA591B49193
:100160008FB7111112C0F894EC91D095DE23DC9377
:100170008FBFDF91CF911F91089585E0D7CF82E0A7
:10018000D5CF84E0D3CF83E0D1CFF894EC91DE2BB0
:10019000EECF909160009F3FC9F0981711F08F3F0C
:1001A000A9F489B78B7989BF80B7807F80BFE09140
:1001B0008400F0918500309751F080918300908108
:1001C0008095892380838FEF8093600008958091CC
:1001D0006000813019F480B78F7C80BF60E080912F
:1001E000600095DFF0CF1092620081E0809398006C
:1001F00083E0CFDF60E080E08ACFCF93DF9390E0B1
:10020000FC01E65DFF4F24918A5C9F4FFC018491C5
:100210008823D1F090E0880F991FFC01E25EFF4F28
:10022000A591B491FC01E05DFF4FC591D49162307E
:1002300071F49FB7F8943C91822F809583238C931F
:10024000E8812E2B28839FBFDF91CF9108958FB730
:10025000F894EC912E2B2C938FBFF6CF1F920F9218
:100260000FB60F9211242F933F934F935F936F9389
:100270007F938F939F93AF93BF93EF93FF9380915F
:100280007F0090918000A0918100B0918200892B25
:100290008A2B8B2B61F180917F0090918000A0913F
:1002A0008100B0918200181619061A061B0694F5F3
:1002B00080917F0090918000A0918100B091820098
:1002C0000197A109B10980937F0090938000A093CA
:1002D0008100B093820080917F0090918000A09176
:1002E0008100B0918200892B8A2B8B2B99F48FEFA0
:1002F00050DFFF91EF91BF91AF919F918F917F91CF
:100300006F915F914F913F912F910F900FBE0F9082
:100310001F90189590918300E0918400F0918500E2
:10032000808189278083E5CF1F920F920FB60F92AD
:1003300011242F933F938F939F93AF93BF938091FB
:100340007B0090917C00A0917D00B0917E00309167
:100350007A0026E0230F2D3768F129E8230F039652
:10036000A11DB11D20937A0080937B0090937C00A7
:10037000A0937D00B0937E008091760090917700ED
:10038000A0917800B09179000196A11DB11D8093D4
:10039000760090937700A0937800B0937900BF9196
:1003A000AF919F918F913F912F910F900FBE0F9022
:1003B0001F9018950296A11DB11DD4CF81B781BFA2
:1003C00078948AB582608ABD8AB581608ABD83B718
:1003D000887F836083BF789489B7826089BF80B744
:1003E000807F80BF80B7806880BF80B7806480BF17
:1003F0008CB580648CBD8FEF8DBD80B7876080BF6A
:1004000086B18877866886B9379A62E084E0F5DE3F
:1004100061E081E0F2DE61E080E0EFDE61E083E058
:10042000ECDE61E082E0E9DE60E083E070DE61E066
:1004300080E06DDE60E081E06ADE60E082E067DE41
:100440001092620081E08093980083E0A2DE60E079
:1004500080E05DDEC1E0812C39E0932E3DE3A32EE8
:10046000B12C44244A94542C320155E0352ED6E068
:1004700002E080919700882309F473C083E01FDEB7
:1004800061E0892B09F060E080E041DE8FB7F894ED
:10049000C0907B00D0907C00E0907D00F0907E00CA
:1004A0008FBFC0929300D0929400E0929500F0929A
:1004B000960080919800882399F010929800D701B7
:1004C000C6010196A11DB11D80938A0090938B00F7
:1004D000A0938C00B0938D001092970083E059DEBA
:1004E0002091620030E0C90163E070E01BD2FC01A2
:1004F000ED59FF4F4081442321F15181552309F1EA
:1005000080918A0090918B00A0918C00B0918D0019
:100510008C159D05AE05BF05A0F48091970088233A
:1005200021F1C50ED11CE11CF11CC0928A00D092B1
:100530008B00E0928C00F0928D001092970083E087
:1005400028DE10916100133009F438C108F0C3C0EF
:10055000113009F4E6C0123009F403C1D0936100F0
:1005600096C183E0ACDD682F8FCFC40ED11CE11C97
:10057000F11CC0928A00D0928B00E0928C00F09225
:100580008D00C0939700C90163E070E0CBD18D5915
:100590009F4FFC01C280D12CF12CE12C20916000F6
:1005A000233069F48091860090918700A0918800A3
:1005B000B0918900C816D906EA06FB0611F2C0926E
:1005C0008600D0928700E0928800F09289002F3F49
:1005D00009F037C010BE8CB581788CBD1FBC1EBC25
:1005E0001BBC1DBC89B78B7989BF88B7846688BF5F
:1005F00080B7806880BF80B78F7B80BF8CB58F7BD2
:100600008CBDE9E3F0E08491E82FF0E0EE0FFF1FEE
:10061000E05DFF4F859194919093850080938400D5
:10062000EDE2F0E084918093830080B78F7C80BFFF
:100630008CB58F7C8CBD61E083E0DFDD83E080934F
:10064000600080916000833009F07BCF80B7807FAD
:1006500080BF1FBCC114D104E104F10491F1C501B4
:10066000B401A70196016FD181E08F5F5695479540
:10067000379527952F3F31054105510519F010F0A9
:100680008F3099F79FEF920F9DBD2150310941099D
:1006900051092EBD40927F005092800060928100EF
:1006A00070928200EFE3F0E09491933031F09491F6
:1006B000943019F099B7906499BF90B7892B80BF97
:1006C00040CF89B7806489BF89B78B7989BF60E0E3
:1006D00083E01DDD36CF153009F4DBC008F4B4C06B
:1006E000163009F03BCF60E081E011DDE0908E0034
:1006F000F12C84E0E4DCE816F90609F4BACE84E0D3
:10070000DEDC892B09F0F5C030926200C0939800BE
:1007100084E0D5DC21E0892B09F420E020938E00D1
:10072000A8CE84E0CCDC892B09F018CF00936100BF
:100730008091930090919400A0919500B0919600C3
:100740008053984FAF4FBF4F80938F00909390008E
:10075000A0939100B09392001093620010939800C0
:1007600088CE8091930090919400A0919500B091D3
:10077000960040918F00509190006091910070918F
:10078000920084179507A607B70708F472CE23E0F6
:10079000209361008854944FAF4FBF4F80938F00D8
:1007A00090939000A0939100B093920061E081E05B
:1007B000AEDC10936200C09398005BCE84E07FDCD7
:1007C000C0909300D0909400E0909500F090960037
:1007D000892BA9F0D701C6018C509E4FAF4FBF4F58
:1007E00080938F0090939000A0939100B09392001B
:1007F00084E08093610010936200C0939800809120
:100800008F0090919000A0919100B0919200C81635
:10081000D906EA06FB0608F42CCE60E081E077DC1E
:10082000F0E1CF0EF7E2DF1EE11CF11CC0928F0059
:10083000D0929000E0929100F0929200309261008C
:1008400084E080936200B7CF40918F005091900078
:10085000609191007091920080919300909194002A
:10086000A0919500B091960084179507A607B70749
:1008700008F4FFCDD093610084E021DC21E0892BD6
:1008800009F420E020938E0060E081E040DCABDCE6
:10089000F0CDC0909300D0909400E0909500F0903F
:1008A000960080918F0090919000A0919100B0915E
:1008B0009200C816D906EA06FB0618F0D09361002C
:1008C00092DC84E0FCDB892B09F4D3CD84EFC80EE5
:1008D00081E0D81EE11CF11CC0928F00D0929000E4
:1008E000E0929100F092920084E08093610083E0B6
:1008F000A8CF79DC0DCF2FB7F89480917B00909131
:100900007C00A0917D00B0917E002FBF0196A11DBB
:10091000B11D80938A0090938B00A0938C00B093BC
:100920008D0008950024552704C0080E591F880F14
:10093000991F009729F076956795B8F37105B9F777
:10094000802D952F0895A1E21A2EAA1BBB1BFD0135
:100950000DC0AA1FBB1FEE1FFF1FA217B307E4079E
:10096000F50720F0A21BB30BE40BF50B661F771FF6
:10097000881F991F1A9469F76095709580959095D6
:100980009B01AC01BD01CF010895EE0FFF1F059043
:0A099000F491E02D0994F894FFCFD4
:10099A00FF0101000000F464656496F4F432413208
:0609AA0032E232E87100A8
:00000001FF
