:1000000009C021C020C020C01EC01DC01CC01BC014
:100010001AC019C011241FBECFE9CDBF10E0A0E661
:10002000B0E0E4E2F3E002C005900D92A437B1071E
:10003000D9F720E0A4E7B0E001C01D92AD37B207C8
:10004000E1F79DD06DC1DCCF1F920F920FB60F92DA
:1000500011242F933F938F939F93EF93FF933091AE
:1000600077003F5F3093770020916000822F90E00F
:10007000820F911D820F911DFC01EF59FF4F82816C
:10008000381798F01092770080917600882351F00D
:10009000C29A98B381E0892788BB98B388E0892702
:1000A00088BB03C0C298C098C39A80917C008F5FC0
:1000B00080937C0080917C008F3E38F480917800A2
:1000C00090917900892B09F44FC08091780090912C
:1000D0007900892B61F410927C0080917A009091D4
:1000E0007B00019690937B0080937A0008C0109269
:1000F000790010927800109275001092760080912D
:1001000074008F5F8093740090917500981760F56C
:1001100080917600882399F01092740020916000FD
:10012000822F90E0820F911D820F911DFC01EF59EB
:10013000FF4F8181809375001092760015C0109258
:10014000740020916000822F90E0820F911D820F39
:10015000911DFC01EF59FF4F80818093750088232A
:1001600019F081E080937600FF91EF919F918F913C
:100170003F912F910F900FBE0F901F90189580E820
:1001800086BD16BCF89487B38F6087BB88E088BBB8
:1001900083B7826083BF89B7826089BF78941092E9
:1001A000600081E090E0909379008093780080E097
:1001B00090E0F0E001E0C4E021E030E00F2EF6E056
:1001C000FF2EF02DB3E0EAE015E0D1E0A2E003302D
:1001D000E1F128F4013069F0023011F19EC00630DF
:1001E00009F46CC00A3009F479C0043009F095C0F4
:1001F00051C0B49B08C010926000309379002093E6
:1002000078000E2FE4CF80917A0090917B00889641
:10021000D093600030937900209378000A2FD7CFD5
:1002200060917A0070917B006817790780F2809165
:100230007A0090917B00CC96C19AA0936000309395
:100240007900209378000B2FC2CFB49B0CC0809113
:100250007A0090917B000A96B09360003093790009
:10026000209378000C2F60917A0070917B006817C2
:10027000790708F4ACCFC19880917A0090917B0007
:1002800088539F4FC093600030937900209378008B
:100290000F2D9DCF60917A0070917B0068177907D0
:1002A00008F495CFF6B3F295F170C1981092600002
:1002B00030937900209378000E2F89CF60917A00D7
:1002C00070917B006817790708F481CF1092600065
:1002D00030937900209378000E2F79CFC198E6B241
:1002E0006F2F70E0E4FA442740F950E06417750777
:1002F00009F46DCFB49907C0109360003093790072
:100300002093780006C0109260003093790020930B
:100310007800F6B3F295F1705ACFC1980E2F57CFEF
:04032000F894FFCF7F
:10032400010064640A02070203050A0103010102D1
:0403340001140400AC
:00000001FF
